:04000000C0EF02F05B
:08000800046ED8CF05F0E0CF33
:1000100006F00001E9CF0CF0EACF07F0E1CF08F0DD
:10002000E2CF09F0D9CF0AF0DACF0BF0F3CF12F01C
:10003000F4CF13F0FACF14F000C00EF001C00FF0AF
:1000400002C010F003C011F09DAA2AEF00F09EBA82
:100050005CEF00F00EC000F00FC001F010C002F025
:1000600011C003F00CC0E9FF07C0EAFF078E08C00B
:10007000E1FF09C0E2FF0AC0D9FF0BC0DAFF12C0DE
:10008000F3FF13C0F4FF14C0FAFF045006C0E0FFF2
:1000900005C0D8FF10000900F5520DE0F6CF3FF083
:1000A000F7CF40F0F5509EA8FED7AD6E3FC0F6FFEB
:1000B00040C0F7FFF0D71200EA6A340EE96EE90695
:1000C0009EAAFED7AECFECFF0D0EEF5CF9E1EC6A15
:1000D0003E6A3E50330807E3EE0EF66E000EF76EF2
:1000E000DADF3E2AF6D79D9A9E9A2AEF00F0206F1B
:1000F0006B004143542E74656D703A25640D0A00FF
:10010000EA6A230EE96EEF500DE0060E016E006AFA
:10011000002EFED7012EFBD77B0E006E002EFED7E1
:10012000EF2EF3D712008E0E006E23C001F022C016
:1001300002F0036A015209E102C001F0026A080EEE
:10014000005E015202E1006A08D0D89001BE04D0DE
:10015000023601360006F9D7019EF7EF02F026506D
:10016000D8B471D0006E2A50D8B46DD0002604E304
:10017000810E002668E204D07F0E005E64E363E037
:1001800027C02EF02B502E1A278E2B8E29502D0291
:10019000F4CF30F028502C02F4CF03F0F3CF2FF03F
:1001A0002D02F3503026F4502F22000E0322295046
:1001B0002C02F3503026F4502F22000E026A032244
:1001C000022227502D02F3502F26F4500322000E56
:1001D000022227502C02F3500326F4500222000E74
:1001E000016A012229502B02F3502F26F4500322DA
:1001F000000E0222012228502B02F3500326F45055
:100200000222000E012227502B02F3500226F45046
:100210000122002A01BE05D02F36033602360136F0
:100220000006000E2FAE0AD0032A0222012201503E
:1002300005E1025003E1035001E1002A2EBE018EC8
:100240002EAE019E04D0006A016A026A036A12009F
:100250002650D8B4A5D0326E2A50D8B4A1D0325E80
:1002600005E37F0E3226D8B09BD006D0810E325ED9
:10027000D8A096D0D8B494D032C000F0016A026AF7
:10028000036A316A27C030F0308E28C02FF029C0B1
:100290002EF0190E326E2D502E5E0DE2010E2F5EE5
:1002A0000AE2305E08E2315E06E2312A302A2F2A65
:1002B0002D502E2628D02C502F5E12E2010E305EDB
:1002C0000FE2315E0DE2312A302A2C502F262D50BC
:1002D0002E2619E32F2A17E1302A15E1312A13D0EF
:1002E0002B508009305E0EE2010E315E0BE2312AA6
:1002F0002B50800930262C502F26E9E3302AE7E1E5
:10030000312AE5D70380322E01D00BD0D8902E367B
:100310002F3630363136D890033602360136333632
:10032000BAD733A006D0D89001320232033233322A
:1003300002D0000635E033BE1ED0D8902E362F36C0
:10034000303631362D502E5E07E2010E2F5E04E26C
:10035000305E02E2315E1AE32C502F5E05E2010EA0
:10036000305E02E2315E12E32B508009305E03E220
:10037000010E315E0BE3032A09E1022A07E1012A9B
:1003800005E1002A0DE001320232033227C032F0CB
:100390002B50321A32AE02D0018E06D0019E04D00C
:1003A000006A016A026A036A26EF03F08E0E006E8D
:1003B0002250005E23C002F024C001F0028E0052E1
:1003C00009E0D890025202E1015204E00232013207
:1003D000002EF7D723AE05D0011E021E012AD8B485
:1003E000022A46EF03F0936A2250215C04E3936AE9
:1003F0000A0E8A6E03D0936A010E8A6E4BEF03F0E9
:100400002A50016A295C03E229C000F00CD0006A7E
:10041000080E2B6E293600362A50005CD8B0006ECC
:1004200001362B2EF7D71200966A956A22C029F062
:100430000A0E2A6EE5DF01C029F00A0E2A6EE0DFFF
:1004400000C01EF022C029F00A0E2A6ED9DF00C0BB
:100450001FF0956A1EC08CFF96908D8096928D92AB
:100460000A0E236E4DDE956A1FC08CFF96928D8218
:1004700096908D900A0E236E43DE4EEF03F0090036
:10048000F6CF24F0F7CF25F0F5509EA8FED7AD6E3D
:1004900024C0F6FF25C0F7FF232EF1D7B1EF02F0FD
:1004A000200E24A8300E256E23C000F023AE08D005
:1004B000001E002A00C023F02D0E256E248E2480FD
:1004C000015023C029F0640E2A6E9ADF00C023F089
:1004D000300E0124266E23C029F00A0E2A6E90DF0A
:1004E000300E0024286E300E0124276E25C000F047
:1004F000300E265C04E0248224BE248412D025C061
:1005000026F0200E256E300E275C04E0248024BEE9
:10051000248207D0D8A4248004E126C027F0200E2E
:10052000266E24B405D024B207D024B009D00CD054
:1005300025509EA8FED7AD6E26509EA8FED7AD6E64
:1005400027509EA8FED7AD6E28509EA8FED7AD6E50
:10055000B6EF02F0F20EF66E000EF76E090E236E85
:100560008ED722C023F0180E246E9AD70D0E9EA8A7
:10057000FED7AD6E0A0E9EA8FED7AD6E5DEF03F0FE
:10058000F86AD09E078E810EAF6EA60EAC6E900EEE
:10059000AB6E206A216AC180C182C184C196070EF8
:1005A000B46E176A186AC190C182C184C186C19CA9
:1005B000C28CC28EC18EC280C80ED56E850ECD6E25
:1005C000C00EF212D26A000E016EC250C70B0110AB
:1005D000C26E96980A0E236E93DDC284C2B4FED713
:1005E000C4CF03F0C3CF22F0C4CF23F09CD503C007
:1005F00025F002C024F001C023F000C022F003C0A7
:1006000029F002C028F001C027F000C026F02D6AB2
:100610002C6A200E2B6E810E2A6EA1DD03C025F000
:1006200002C024F001C023F000C022F003C029F072
:1006300002C028F001C027F000C026F02D6AC00ECD
:100640002C6E7F0E2B6E880E2A6E02D603C025F00C
:1006500002C024F001C023F000C022F003C029F042
:1006600002C028F001C027F000C026F02D6A2C6AD5
:10067000480E2B6E850E2A6E72DD03C025F002C077
:1006800024F001C023F000C022F090D601C01DF07C
:100690001DC022F0A8D61DC022F0C6D6166AF2BE32
:1006A000168EF29E9E8A16BEF28E20501D5C05E0CC
:0E06B0001DC020F01DC022F04DD78CD70300D6
:020000040030CA
:0E00000000220C0E000081000FC00FE00F4028
:00000001FF
;PIC18F458
;CRC=AD32  CREATED="09-mai-19 11:31"
